:100000000C94F3000C94AE080C9487080C946008D0
:100010000C9439080C941B010C941B010C941208CD
:100020000C941B010C941B010C94E1080C94FA0431
:100030000C941B010C941B010C941B010C941B01D0
:100040000C941B010C941B010C941B010C941B01C0
:100050000C941B010C941B010C941B010C94C807FD
:100060000C941B010C941B010C941B010C941B01A0
:100070000C941B010C941B010C941B010C941B0190
:100080000C941B010C941B010C941B010C941B0180
:100090000C941B010C941B010C941B010C941B0170
:1000A0000C941B010C941B010C941B014207450787
:1000B000340738073E0766076607660749074D0796
:1000C000510757075B0766076107450C4A0C4F0C41
:1000D000590C630CAD0CAD0CAD0C6D0C770C810C98
:1000E0008B0C980CAD0CA00C000000002400270025
:1000F0002A002D003000080B000202020100090452
:100100000000010202000005240010010524010185
:1001100001042402060524060001070581031000DE
:100120004009040100020A00000007050202400025
:1001300000070583024000000403090412010002C5
:10014000EF020140412336800001010203014172A8
:100150006475696E6F204C4C430041726475696E22
:100160006F204C656F6E6172646F000000000023A9
:1001700000260029002C002F000000000025002888
:10018000002B002E003100040404040403040502C3
:100190000202020403020202020606060606060422
:1001A00004020202040404080201104080401020EE
:1001B000408040800802040180402010020110802D
:1001C00010204040200000000200090F000003043E
:1001D00001000C0000000000000000000000000012
:1001E00000000000BB0C11241FBECFEFDAE0DEBF21
:1001F000CDBF11E0A0E0B1E0E4E3FBE102C0059077
:100200000D92A838B107D9F723E0A8E8B1E001C002
:100210001D92A334B207E1F710E0C3EFD0E004C0B1
:100220002197FE010E94860DC23FD107C9F70E94A7
:10023000C1090C94980D0C9400004091A3015091B9
:10024000A4012091A1013091A20142175307B4F4F7
:100250009091E8009570E1F39091E80092FD19C04B
:100260008093F1008091A3019091A40101968F7376
:100270009927892B19F48EEF8093E8008091A301D0
:100280009091A40101969093A4018093A30181E031
:10029000089580E00895CF92DF92EF92FF920F933E
:1002A0001F93CF93DF931F92CDB7DEB7182F062F82
:1002B000E42E862F880F8E5F99830E941D0183E0B4
:1002C0000E941D01F12EC12E9981D92E8C2D8F19DE
:1002D000801798F4F601E7FE02C0849101C0808186
:1002E0000E941D01182F80E00E941D018123FFEF55
:1002F000CF1ADF0A8111EACF01C081E00F90DF91B0
:10030000CF911F910F91FF90EF90DF90CF900895C4
:10031000DF92EF92FF920F931F93CF93DF93D82E2C
:100320008A017B01E40EF51EEB01CE15DF0571F0AD
:10033000D7FE03C0FE01849101C088810E941D0187
:1003400021968111F2CF8FEF9FEF01C0C801DF919D
:10035000CF911F910F91FF90EF90DF9008952FB7ED
:10036000F89487708093E9009091E800892F80725B
:1003700095FF04C09091F20080E4891B2FBF08957F
:10038000615030F02091F100FC0120830196F8CFFC
:10039000289884E68093A5010895CF92DF92EF928A
:1003A000FF920F931F93CF93DF936C017A018B0120
:1003B000C0E0D0E0CE15DF0589F0D8016D918D0148
:1003C000D601ED91FC910190F081E02DC6010995D7
:1003D000892B11F47E0102C02196ECCFC701DF9179
:1003E000CF911F910F91FF90EF90DF90CF900895E4
:1003F000CF93DF931F92CDB7DEB76983DC01ED9118
:10040000FC910280F381E02D41E050E0BE016F5F7E
:100410007F4F09950F90DF91CF91089583E00E945F
:10042000AF0190E00895089580E090E00895089568
:1004300080E090E0089580E00895CF92DF92EF92FF
:10044000FF920F931F93CF93DF93CDB7DEB7C456C0
:10045000D1090FB6F894DEBF0FBECDBF6C01DB0132
:100460009C919E5F9C93FE01319684E6DF011D9274
:100470008A95E9F788E089838BE08A8322E02C83E0
:1004800091E09D839E8339E0398774E07A879E8767
:100490009F873A8B44E24B8B9C8B00E011E01E8BD4
:1004A0000D8B89E0E82EF12CF88EEF8A998F3B8F27
:1004B0007C8F2F8F98A353E059A387E08CA34DA383
:1004C0009EA318A70FA301E410E01AA709A786E0CE
:1004D0008BA74CA72DA79EA79FA789AB4AAB2BAB99
:1004E0002CAB2DAB3FAB48AF59AF9AAF5BAF9CAFD6
:1004F0002DAF9EAF21963FAF219722964FAF229707
:1005000023965FAF239724962FAF249725967FAF2E
:10051000259726969FAF269727969FAF27972896D1
:100520009FAF28972A963FAF2A9745E02B964FAF6B
:100530002B972D962FAF2D9760E470E02F967FAF0D
:100540006EAF2F9763964FAF639785E264968FAF38
:10055000649765969FAF659766969FAF6697679617
:100560009FAF679768963FAF689769964FAF699757
:100570006B962FAF6B976D967FAF6EAF6D97A19611
:100580004FAFA197A2968FAFA297A3969FAFA397C5
:10059000A4969FAFA497A5965FAFA597D601129694
:1005A0009C9112979B839B879F5F9A8F9D8F139639
:1005B0008C912C968FAF2C978F5F80686A968FAF47
:1005C0006A9744E650E0BF0180E00E948801CC5960
:1005D000DF4F0FB6F894DEBF0FBECDBFDF91CF91D6
:1005E0001F910F91FF90EF90DF90CF900895FC0145
:1005F00082818F5BFB01808381E008950F931F93BD
:100600008FB7F8944091AB015091AC016091AD016E
:100610007091AE018FBF80918C0190918D01A0915E
:100620008E01B0918F018A019B01081B190B2A0BC7
:100630003B0B093C11052105310550F08091160155
:10064000282F30E0233731051CF4845F8093160196
:1006500040938C0150938D0160938E0170938F01B4
:100660001F910F9108950F931F938FB7F8944091A6
:10067000AB015091AC016091AD017091AE018FBFA3
:100680008091880190918901A0918A01B0918B019C
:100690008A019B01081B190B2A0B3B0B093C110516
:1006A0002105310550F080911601282F30E02C30C3
:1006B00031051CF08C5080931601409388015093B3
:1006C000890160938A0170938B011F910F910895A6
:1006D00083E00C94D7088DE499E4A4E4B9E4FB0129
:1006E00080839183A283B38384E008957F928F9265
:1006F0009F92AF92BF92CF92DF92EF92FF920F93B1
:100700001F93CF93DF93C82E8B017A018091AA01AA
:10071000811103C08FEF9FEF71C08091A80180FF0E
:1007200005C08091E00082608093E000CE2DDF2D37
:10073000D12C8AEF882E8C2D8770B82E8C2D80724C
:10074000A82E8C2D8074982E9AE3792E209709F488
:100750004EC08C2D0E94AF01282F811106C08A94B3
:100760008820C1F20E94A709F1CF90E0C817D907ED
:100770000CF42C2F3FB7F894B092E9008091E80078
:1007800085FF33C0822F90E0C81BD90BAA2029F027
:100790002150A8F01092F100FBCFF801C7FE07C06E
:1007A000215058F044914093F1003196F9CF2150F7
:1007B00020F041914093F100FACF080F191FDD207E
:1007C00019F07092E8000AC08091E80085FD08C029
:1007D0007092E800DD24D394209739F0D12C05C025
:1007E000209719F491107092E8003FBFAFCFD1105D
:1007F000B0CF5D9884E68093A601C701DF91CF91C9
:100800001F910F91FF90EF90DF90CF90BF90AF902E
:100810009F908F907F900895CF93DF93EC0180910C
:100820000B01882331F083E00E9476031816190625
:1008300034F081E090E09B838A8380E090E0DF9158
:10084000CF9108959091AA01992311F057FF03C009
:100850008FEF9FEF08952FB7F89487708093E9008A
:100860008091F20090E0841795070CF4AC01842F7E
:10087000FB0194E6815038F028989093A5013091BF
:10088000F1003193F7CF4115510521F08091F2002D
:10089000882319F02FBFCA0108958BE68093E800E2
:1008A000F9CFCF93DF931F92CDB7DEB7FC018485DC
:1008B000958597FD05C02FEF3FEF358724870FC043
:1008C00041E050E0BE016F5F7F4F82E00E94220452
:1008D000019719F4898190E002C08FEF9FEF0F908C
:1008E000DF91CF9108950F931F93CF93DF931F92C2
:1008F000CDB7DEB78C01FC018485958597FF12C0CA
:1009000041E050E0BE016F5F7F4F82E00E94220411
:10091000019719F4298130E002C02FEF3FEFF80171
:1009200035872487F801848595850F90DF91CF91D5
:100930001F910F9108959FB7F89487708093E900F5
:100940008091F2009FBF0895FC018485958597FDF5
:1009500006C082E00E949B0490E00196089582E028
:100960000E949B0490E008958091990181110DC02F
:1009700082E08093950184E0809396011092980123
:100980001092970181E08093990185E991E00895A3
:100990000F931F93CF93DF931F92CDB7DEB782E003
:1009A000898342E450E066EF70E080E80E948801AD
:1009B0000E94B404DC0112960D911C91139701154D
:1009C000110569F0D801ED91FC910280F381E02DD1
:1009D000BE016F5F7F4FC801099597FF07C08981EE
:1009E0000F90DF91CF911F910F910895F80100852D
:1009F0001185E5CF1F920F920FB60F921124CF925F
:100A0000DF92EF92FF920F931F932F933F934F9399
:100A10005F936F937F938F939F93AF93BF93EF9366
:100A2000FF93CF93DF93CDB7DEB76C97DEBFCDBF1B
:100A30001092E9008091E80083FFEDC168E0CE01EB
:100A400045960E94C00182EF8093E8008D8987FF60
:100A500005C09091E80090FFFCCF03C09EEF9093FB
:100A6000E800982F907609F0C6C09E892F89188DCE
:100A700091110CC0803829F48091A9018093F10074
:100A800002C01092F1001092F10048C1422F50E0D4
:100A9000512B913051F4811141C14130510509F080
:100AA0003DC18091A9018D7F0BC0933061F481110C
:100AB00035C14130510509F031C18091A9018260F1
:100AC0008093A9012BC1953041F48091E80080FF0B
:100AD000FCCF20682093E30021C1963009F05FC06D
:100AE000EB8CFC8C1092E9001092A4011092A301EF
:100AF000123091F51092A2011092A1010E94C80437
:100B000099E0BE016F5F7F4FDB01E92F1D92EA95EF
:100B1000E9F799831A8391E09E8390EA98879AEF88
:100B200099872091A3013091A401275F3F4F3C8317
:100B30002B838D831092E9001092A4011092A301DF
:100B4000F092A201E092A10149E050E080E00E9411
:100B500088010E94C804E2C0F092A201E092A101C3
:100B60000E94B404DC011296ED90FC901397E114FE
:100B7000F10409F4C0C0D701ED91FC910480F58126
:100B8000E02DBE016B5E7F4FC7010995009719F0FC
:100B90000CF0C4C0C7C0F701E084F184E8CF9730FF
:100BA00009F4C0C0983021F481E08093F100B6C010
:100BB000993009F0B3C0837009F0B4C0E8E1F1E006
:100BC00081E021E036E39081992361F08093E90090
:100BD0002093EB0091919093EC003093ED008F5FA8
:100BE000873089F78EE78093EA001092EA008F89B8
:100BF0008093AA0193C08B8D9C8D1092E900109276
:100C0000A4011092A3019093A2018093A101898D68
:100C1000811156C08E899D89913A59F4813209F02B
:100C200081C047E050E064E071E080E00E9488010C
:100C300075C0913209F076C0833289F4888D90E0D6
:100C4000982F88272F89822BA0E0B0E080930001A5
:100C500090930101A0930201B09303015FC0803221
:100C600069F48091E80082FFFCCF67E084E091E0C6
:100C70000E94C0018BEF8093E80006C0823209F029
:100C80004DC08F8980930B018091A701882319F0B3
:100C9000EEEFFAE002C0E0E0F8E08091040190910C
:100CA0000501A0910601B0910701803B9440A10588
:100CB000B10509F07BC080910B0180FF93C076C025
:100CC0000E94B404DC0112960D911C91139701153A
:100CD000110541F1D801ED91FC910190F081E02DD9
:100CE000BE016B5E7F4FC8010995811117C0F801E5
:100CF00000851185ECCF113009F44EC0133091F40A
:100D00008F89882309F445C0823081F440E860E18E
:100D10008AE591E00E944B01882321F08EEF8093B9
:100D2000E80079C081E28093EB0075C0813029F43E
:100D300040E86BE08EE491E0EDCF833099F70E94BC
:100D4000B404DC011296ED90FC9013978E010F5FB6
:100D50001F4F6801E114F10479F0D701ED91FC9186
:100D60000680F781E02DB801C7010995080F111D14
:100D7000F701E084F184EECFD8011C92F6010190D6
:100D80000020E9F73197BF016C197D0940E0C601E9
:100D9000C1CF68E371E002C06CE371E061157105D9
:100DA00009F2FB01449150E080E840CF0FB6F8947F
:100DB000A895809160008861809360001092600027
:100DC0000FBEA895EE3F2AE0F20739F08091FE0AA7
:100DD0009091FF0A91838083A1CF1092FF0A109215
:100DE000FE0A9CCFEE3F8AE0F80731F080819181C6
:100DF0009093FF0A8093FE0A87E797E791838083A9
:100E00009BE088E10FB6F894A895809360000FBE30
:100E10009093600083CF6C960FB6F894DEBF0FBE40
:100E2000CDBFDF91CF91FF91EF91BF91AF919F9196
:100E30008F917F916F915F914F913F912F911F9172
:100E40000F91FF90EF90DF90CF900F900FBE0F901B
:100E50001F90189590E0FC013197EF30F105B0F547
:100E6000EA5AFF4F0C94860D809180008F7703C063
:100E7000809180008F7D8093800008958091800014
:100E8000877FF9CF84B58F7702C084B58F7D84BD0D
:100E90000895809190008F7707C0809190008F7D9A
:100EA00003C080919000877F809390000895809187
:100EB000C0008F7703C08091C0008F7D8093C000F9
:100EC00008958091C200877F8093C2000895CF93D8
:100ED000DF9390E0FC01EA55FE4F2491FC01E957B5
:100EE000FE4F8491882361F190E0880F991FFC01E7
:100EF000E851FF4FC591D491FC01E758FE4FA591F1
:100F0000B491611109C09FB7F8948881209582231C
:100F10008883EC912E230BC0623061F49FB7F89464
:100F20003881822F809583238883EC912E2B2C93FC
:100F30009FBF06C08FB7F894E8812E2B28838FBF00
:100F4000DF91CF9108953FB7F894809191019091EE
:100F50009201A0919301B091940126B5A89B05C080
:100F60002F3F19F00196A11DB11D3FBFBA2FA92F28
:100F7000982F8827820F911DA11DB11DBC01CD01A5
:100F800042E0660F771F881F991F4A95D1F7089591
:100F90001F920F920FB60F9211242F933F938F93AE
:100FA0009F93AF93BF938091AB019091AC01A091BF
:100FB000AD01B091AE013091900123E0230F2D37A8
:100FC00020F40196A11DB11D05C026E8230F02964D
:100FD000A11DB11D209390018093AB019093AC01B2
:100FE000A093AD01B093AE018091910190919201D7
:100FF000A0919301B09194010196A11DB11D809320
:10100000910190939201A0939301B0939401BF91A9
:10101000AF919F918F913F912F910F900FBE0F90A5
:101020001F9018951F920F920FB60F9211242F93B5
:101030003F934F935F936F937F938F939F93AF9360
:10104000BF93EF93FF93E0911401F091150109957F
:10105000FF91EF91BF91AF919F918F917F916F9190
:101060005F914F913F912F910F900FBE0F901F9066
:1010700018951F920F920FB60F9211242F933F9342
:101080004F935F936F937F938F939F93AF93BF9390
:10109000EF93FF93E0911201F09113010995FF91F5
:1010A000EF91BF91AF919F918F917F916F915F91E0
:1010B0004F913F912F910F900FBE0F901F90189559
:1010C0001F920F920FB60F9211242F933F934F93BD
:1010D0005F936F937F938F939F93AF93BF93EF93A0
:1010E000FF93E0911001F09111010995FF91EF91AB
:1010F000BF91AF919F918F917F916F915F914F9130
:101100003F912F910F900FBE0F901F9018951F9237
:101110000F920FB60F9211242F933F934F935F932B
:101120006F937F938F939F93AF93BF93EF93FF93AF
:10113000E0910E01F0910F010995FF91EF91BF91A0
:10114000AF919F918F917F916F915F914F913F915F
:101150002F910F900FBE0F901F9018951F920F9216
:101160000FB60F9211242F933F934F935F936F937A
:101170007F938F939F93AF93BF93EF93FF93E091F0
:101180000C01F0910D010995FF91EF91BF91AF9185
:101190009F918F917F916F915F914F913F912F918F
:1011A0000F900FBE0F901F9018950E94930D809383
:1011B000E9008091F200882319F08AE38093E80027
:1011C00008951F920F920FB60F9211242F933F9301
:1011D0004F935F936F937F938F939F93AF93BF933F
:1011E000CF93EF93FF93C091E1008091E100837F63
:1011F0008093E100C3FF0FC01092E90081E080936B
:10120000EB001092EC0082E38093ED001092AA01B3
:1012100088E08093F000C2FF19C083E00E94D708E5
:101220008091A601882339F08091A6018150809396
:10123000A601882389F18091A501882339F0809146
:10124000A50181508093A501882341F1C4FF10C0FE
:101250008091E2008E7E81608093E2008091E100C7
:101260008F7E8093E1008091A8018E7E806111C005
:10127000C0FF16C08091E2008E7E80618093E20004
:101280008091E1008E7E8093E1008091A8018E7EA6
:1012900081608093A80104C05D9ACDCF289AD6CFF3
:1012A000FF91EF91CF91BF91AF919F918F917F91DE
:1012B0006F915F914F913F912F910F900FBE0F90C3
:1012C0001F9018951F93CF93DF93EFECF1E094916B
:1012D000E0EBF1E0D491E1E9F1E0C491CC23D9F065
:1012E000182F992319F0892F0E942A07EC2FF0E07C
:1012F000EE0FFF1FE758FE4FA591B4918FB7F894FA
:10130000111105C09C91ED2FE095E92302C0EC91ED
:10131000ED2BEC938FBFDF91CF911F910895BC010E
:10132000009791F0FC0101900020E9F73197AF019F
:10133000481B590BE091E702F091E8020280F3812B
:10134000E02D87EE92E0099480E090E00895CF923E
:10135000DF92EF92FF920E94A3076B017C010E9433
:10136000A307DC01CB018C199D09AE09BF09883E9A
:101370009340A105B10598F3FF90EF90DF90CF90D7
:101380000895CF93DF93CDB7DEB7A5970FB6F89446
:10139000DEBF0FBECDBF789484B5826084BD84B5B6
:1013A000816084BD85B5826085BD85B5816085BD60
:1013B00080916E00816080936E0010928100809118
:1013C00081008260809381008091810081608093A0
:1013D00081008091800081608093800080919100E5
:1013E0008260809391008091910081608093910050
:1013F000809190008160809390008091C100846012
:101400008093C1008091C10082608093C10080916F
:10141000C10081608093C1008091C300816080938E
:10142000C3008091C00082608093C0008091C200A0
:1014300081608093C20080917A00846080937A00FA
:1014400080917A00826080937A0080917A00816036
:1014500080937A0080917A00806880937A0010925D
:10146000AA011092A9011092A8018091D700816071
:101470008093D70080EA8093D80089B5806189BDC8
:1014800089B5826089BD09B400FEFDCF0E94A7091D
:101490008091D8008F7C80618093D8008091E0009B
:1014A000807F8093E0008091E1008E7E8093E10058
:1014B0008DE08093E200559A209AEEEFFFE7859148
:1014C00094918B3F9C4D19F481E08093A7018FEF9D
:1014D0009FEF9093F4028093F30262E082E00E9417
:1014E000670762E083E00E94670761E08AE00E948C
:1014F000670783E393E090930D0180930C01809143
:1015000069008C7F80936900E89A8EEF92E0909357
:101510000F0180930E0180916900837F80936900A1
:10152000E99A0EE411E0F80180810E5F1F4F62E03E
:101530000E946707F1E006361F07A9F7FAE04F2E71
:10154000512C612C712C789407EC11E05FEAE52EA8
:1015500051E0F52E8EE191E09DA38CA3EEE4F1E045
:10156000FBA3EAA3812C64E6B62E79E0972EE0E98E
:10157000AE2EEAA1FBA121913191FBA3EAA333276F
:10158000F901EB53FE4F8491F901EA55FE4FD490D7
:10159000F901E957FE4FC490CC2091F081110E94CF
:1015A0002A07EC2DF0E0EE0FFF1FE559FE4FA59145
:1015B000B491EC91DE2291E080E021F490E002C051
:1015C00090E080E0F801908381832FB7F8948091B8
:1015D000AB019091AC01A091AD01B091AE012FBFD4
:1015E000ECA1FDA14191519161917191FDA3ECA3F9
:1015F000841B950BA60BB70B0697A105B10550F1FF
:10160000F801C080D180F70180819181C816D90688
:1016100009F19091160180913A03980DC114D104FB
:1016200019F49982AA8204C0F8E0F98320E82A8399
:101630009B83BC8244E050E0BE016F5F7F4F8F5FB1
:101640000E94760380913A038F5F0E94D708F701CA
:10165000D182C0820E5F1F4FF2E0EF0EF11C839427
:101660002CE0821286CF8091DF029091E002A0915F
:10167000E102B091E2024091E3025091E4026091F4
:10168000E5027091E602841B950BA60BB70B8F73D6
:101690009927AA27BB27892B8A2B8B2B09F05FC0A0
:1016A00080913A030E949B04882309F46BC0C09088
:1016B000DF02D090E002E090E102F090E2028FEFD2
:1016C000C81AD80AE80AF80A9FE3C922DD24EE24E2
:1016D000FF248091E3029091E402A091E502B09191
:1016E000E602C816D906EA06FB06C9F180913A035C
:1016F0000E949B0444E050E0BE016F5F7F4F8091E9
:101700003A030E942204049754F18091DF029091E1
:10171000E002A091E102B091E202880F991F880FC8
:10172000991FFC01E152FE4F49815A816B817C81F6
:101730004083518362837383C092DF02D092E002C0
:10174000E092E102F092E202EFEFCE1ADE0AEE0A38
:10175000FE0AFFE3CF22DD24EE24FF24BACF8091DE
:10176000E3029091E402A091E502B091E602880FB5
:10177000991F880F991FFC01E152FE4F2081318192
:10178000438103C040E030E020E0C090DF02D09011
:10179000E002E090E102F090E2028091E302909199
:1017A000E402A091E502B091E602C816D906EA0665
:1017B000FB06B9F08091E3029091E402A091E5026A
:1017C000B091E6020196A11DB11D8F739927AA273A
:1017D000BB278093E3029093E402A093E502B093C9
:1017E000E602222341F02B3009F03DCF303B09F0D7
:1017F0003ACF242E312C2FEF30E0D1010E948C0DF6
:101800002FE730E040E050E00E94360D69017A0198
:10181000590119A28E010F5D1F4FCA01B901A30121
:1018200092010E94550D605DF80162938F012115B0
:1018300031054105510589F7CF010E948F0984E8E0
:1018400091E00E948F0961E08AE00E946707C1145D
:10185000D104E104F10411F480E005C0FFEFAF16FC
:10186000B10421F481E00E9462097DC0EFECF1E057
:10187000E4918E2F90E0FC013197EF30F10508F0F4
:101880006CC0EB59FF4F0C94860D84B5806884BD05
:10189000C7BC69C084B5806284BDC8BC64C0809187
:1018A0008000806880938000D0928900C092880078
:1018B0005AC080918000806280938000D0928B001B
:1018C000C0928A0050C08091800088608093800020
:1018D000D0928D00C0928C0046C0809190008068AC
:1018E00080939000D0929900C09298003CC0809163
:1018F0009000806280939000D0929B00C0929A00EA
:1019000032C080919000886080939000D0929D00BA
:10191000C0929C0028C08091C00080688093C00065
:101920008091C0008F7B8093C000C092CF001BC00D
:101930008091C00080628093C000C092D00013C02C
:101940008091C20088608093C2008091C2008B7F2A
:101950008093C200C092D20006C020E8A216B10453
:101960000CF080CF79CF80E090E0892B09F4EBCDAB
:101970000E940000E8CD1092EA021092E90288EE7F
:1019800093E0A0E0B0E08093EB029093EC02A09390
:10199000ED02B093EE028AE691E09093E802809324
:1019A000E7028FEF9FEF9093F4028093F30282E0BF
:1019B00080933B0380933C0381E493E090933E0348
:1019C00080933D031092400310923F038CE791E017
:1019D000909338038093370380E88093410381E834
:1019E000809342030E94B404FC01218180913B0357
:1019F00090E0820F911D0897C4F5A281B3811097E2
:101A000029F487E393E0938382830EC018968D9127
:101A10009C911997009711F0DC01F8CF87E393E0D0
:101A200019969C938E9318978081809339038181B6
:101A300080933A03908180913C03890F808380E0FA
:101A400090913B03891788F4A0913D03B0913E0328
:101A5000A80FB11D9C91A181B0E0A95EBE4F9C93DF
:101A600091819F5F91838F5FEBCF0895052E97FB48
:101A70001EF400940E944D0D57FD07D00E94550D95
:101A800007FC03D04EF40C944D0D509540953095C5
:101A900021953F4F4F4F5F4F0895909580957095DA
:101AA00061957F4F8F4F9F4F0895A1E21A2EAA1B79
:101AB000BB1BFD010DC0AA1FBB1FEE1FFF1FA217FE
:101AC000B307E407F50720F0A21BB30BE40BF50BFB
:101AD000661F771F881F991F1A9469F76095709584
:101AE000809590959B01AC01BD01CF010895A29F07
:101AF000B001B39FC001A39F700D811D1124911DE2
:101B0000B29F700D811D1124911D0895EE0FFF1FCE
:101B10000590F491E02D09940E94770DB7FF089588
:101B2000821B930B089581E090E0F8940C94980D3B
:041B3000F894FFCF57
:101B3400FFFFFFFF00E10000000000001702170292
:101B44001702170217023C00C18081000000000048
:101B54000000000000000000000000000000000081
:101B64000000000000000000000000000000000071
:101B74000000000000000000000000000000090058
:101B840008000700060005000400140010000E0001
:101B94000F001200130000000000F8010C040E02F4
:101BA4006803A40451047304000000001B021D0216
:081BB40018026B030D0A00008A
:00000001FF
